{
  "_format": "hh-sol-artifact-1",
  "contractName": "TasksV1",
  "sourceName": "contracts/TasksV1.sol",
  "abi": [
    {
      "anonymous": false,
      "inputs": [
        {
          "indexed": true,
          "internalType": "address",
          "name": "previousOwner",
          "type": "address"
        },
        {
          "indexed": true,
          "internalType": "address",
          "name": "newOwner",
          "type": "address"
        }
      ],
      "name": "OwnershipTransferred",
      "type": "event"
    },
    {
      "anonymous": false,
      "inputs": [
        {
          "indexed": false,
          "internalType": "uint256",
          "name": "taskId",
          "type": "uint256"
        },
        {
          "components": [
            {
              "internalType": "uint256",
              "name": "createdTime",
              "type": "uint256"
            },
            {
              "internalType": "uint256",
              "name": "startTime",
              "type": "uint256"
            },
            {
              "internalType": "uint256",
              "name": "duration",
              "type": "uint256"
            },
            {
              "internalType": "uint256",
              "name": "salary",
              "type": "uint256"
            },
            {
              "internalType": "uint256",
              "name": "deposit",
              "type": "uint256"
            },
            {
              "internalType": "address",
              "name": "creator",
              "type": "address"
            },
            {
              "internalType": "address",
              "name": "provider",
              "type": "address"
            },
            {
              "internalType": "enum TasksV1.TaskStatus",
              "name": "status",
              "type": "uint8"
            },
            {
              "internalType": "string",
              "name": "jobDesc",
              "type": "string"
            },
            {
              "internalType": "string",
              "name": "submission",
              "type": "string"
            },
            {
              "internalType": "string",
              "name": "disputeResult",
              "type": "string"
            }
          ],
          "indexed": false,
          "internalType": "struct TasksV1.Task",
          "name": "task",
          "type": "tuple"
        },
        {
          "indexed": false,
          "internalType": "address",
          "name": "creator",
          "type": "address"
        },
        {
          "indexed": false,
          "internalType": "string",
          "name": "refId",
          "type": "string"
        }
      ],
      "name": "TaskCreation",
      "type": "event"
    },
    {
      "anonymous": false,
      "inputs": [
        {
          "indexed": false,
          "internalType": "uint256",
          "name": "taskId",
          "type": "uint256"
        },
        {
          "indexed": false,
          "internalType": "address",
          "name": "sender",
          "type": "address"
        },
        {
          "indexed": false,
          "internalType": "enum TasksV1.TaskActions",
          "name": "action",
          "type": "uint8"
        }
      ],
      "name": "TaskUpdate",
      "type": "event"
    },
    {
      "inputs": [
        {
          "internalType": "uint256",
          "name": "",
          "type": "uint256"
        },
        {
          "internalType": "uint256",
          "name": "",
          "type": "uint256"
        }
      ],
      "name": "applicants",
      "outputs": [
        {
          "internalType": "address",
          "name": "",
          "type": "address"
        }
      ],
      "stateMutability": "view",
      "type": "function"
    },
    {
      "inputs": [
        {
          "internalType": "address",
          "name": "",
          "type": "address"
        },
        {
          "internalType": "uint256",
          "name": "",
          "type": "uint256"
        }
      ],
      "name": "appliedTasks",
      "outputs": [
        {
          "internalType": "uint256",
          "name": "",
          "type": "uint256"
        }
      ],
      "stateMutability": "view",
      "type": "function"
    },
    {
      "inputs": [
        {
          "internalType": "uint256",
          "name": "taskId",
          "type": "uint256"
        }
      ],
      "name": "applyTask",
      "outputs": [],
      "stateMutability": "nonpayable",
      "type": "function"
    },
    {
      "inputs": [
        {
          "internalType": "uint256",
          "name": "taskId",
          "type": "uint256"
        }
      ],
      "name": "cancelTask",
      "outputs": [],
      "stateMutability": "nonpayable",
      "type": "function"
    },
    {
      "inputs": [
        {
          "internalType": "uint256",
          "name": "taskId",
          "type": "uint256"
        },
        {
          "internalType": "address",
          "name": "addr",
          "type": "address"
        }
      ],
      "name": "checkAppliedTask",
      "outputs": [
        {
          "internalType": "bool",
          "name": "",
          "type": "bool"
        }
      ],
      "stateMutability": "view",
      "type": "function"
    },
    {
      "inputs": [
        {
          "internalType": "uint256",
          "name": "duration",
          "type": "uint256"
        },
        {
          "internalType": "string",
          "name": "jobDesc",
          "type": "string"
        },
        {
          "internalType": "string",
          "name": "refId",
          "type": "string"
        }
      ],
      "name": "createTask",
      "outputs": [],
      "stateMutability": "payable",
      "type": "function"
    },
    {
      "inputs": [
        {
          "internalType": "address",
          "name": "",
          "type": "address"
        },
        {
          "internalType": "uint256",
          "name": "",
          "type": "uint256"
        }
      ],
      "name": "createdTasks",
      "outputs": [
        {
          "internalType": "uint256",
          "name": "",
          "type": "uint256"
        }
      ],
      "stateMutability": "view",
      "type": "function"
    },
    {
      "inputs": [
        {
          "internalType": "uint256",
          "name": "taskId",
          "type": "uint256"
        },
        {
          "internalType": "uint8",
          "name": "providerRating",
          "type": "uint8"
        },
        {
          "internalType": "string",
          "name": "commentForProvider",
          "type": "string"
        }
      ],
      "name": "failTask",
      "outputs": [],
      "stateMutability": "nonpayable",
      "type": "function"
    },
    {
      "inputs": [
        {
          "internalType": "enum TasksV1.TaskStatus",
          "name": "status",
          "type": "uint8"
        }
      ],
      "name": "getActiveTasks",
      "outputs": [
        {
          "components": [
            {
              "internalType": "uint256",
              "name": "createdTime",
              "type": "uint256"
            },
            {
              "internalType": "uint256",
              "name": "startTime",
              "type": "uint256"
            },
            {
              "internalType": "uint256",
              "name": "duration",
              "type": "uint256"
            },
            {
              "internalType": "uint256",
              "name": "salary",
              "type": "uint256"
            },
            {
              "internalType": "uint256",
              "name": "deposit",
              "type": "uint256"
            },
            {
              "internalType": "address",
              "name": "creator",
              "type": "address"
            },
            {
              "internalType": "address",
              "name": "provider",
              "type": "address"
            },
            {
              "internalType": "enum TasksV1.TaskStatus",
              "name": "status",
              "type": "uint8"
            },
            {
              "internalType": "string",
              "name": "jobDesc",
              "type": "string"
            },
            {
              "internalType": "string",
              "name": "submission",
              "type": "string"
            },
            {
              "internalType": "string",
              "name": "disputeResult",
              "type": "string"
            }
          ],
          "internalType": "struct TasksV1.Task[]",
          "name": "",
          "type": "tuple[]"
        }
      ],
      "stateMutability": "view",
      "type": "function"
    },
    {
      "inputs": [
        {
          "internalType": "uint256",
          "name": "taskId",
          "type": "uint256"
        }
      ],
      "name": "getApplicant",
      "outputs": [
        {
          "internalType": "address[]",
          "name": "",
          "type": "address[]"
        }
      ],
      "stateMutability": "view",
      "type": "function"
    },
    {
      "inputs": [
        {
          "internalType": "address",
          "name": "addr",
          "type": "address"
        }
      ],
      "name": "getAppliedTask",
      "outputs": [
        {
          "internalType": "uint256[]",
          "name": "",
          "type": "uint256[]"
        }
      ],
      "stateMutability": "view",
      "type": "function"
    },
    {
      "inputs": [
        {
          "internalType": "address",
          "name": "addr",
          "type": "address"
        }
      ],
      "name": "getCreatedTask",
      "outputs": [
        {
          "internalType": "uint256[]",
          "name": "",
          "type": "uint256[]"
        }
      ],
      "stateMutability": "view",
      "type": "function"
    },
    {
      "inputs": [],
      "name": "owner",
      "outputs": [
        {
          "internalType": "address",
          "name": "",
          "type": "address"
        }
      ],
      "stateMutability": "view",
      "type": "function"
    },
    {
      "inputs": [
        {
          "internalType": "address",
          "name": "",
          "type": "address"
        },
        {
          "internalType": "uint256",
          "name": "",
          "type": "uint256"
        }
      ],
      "name": "provideredTasks",
      "outputs": [
        {
          "internalType": "uint256",
          "name": "",
          "type": "uint256"
        }
      ],
      "stateMutability": "view",
      "type": "function"
    },
    {
      "inputs": [
        {
          "internalType": "uint256",
          "name": "taskId",
          "type": "uint256"
        },
        {
          "internalType": "uint8",
          "name": "creatorRating",
          "type": "uint8"
        },
        {
          "internalType": "string",
          "name": "commentForCreator",
          "type": "string"
        }
      ],
      "name": "rateCreator",
      "outputs": [],
      "stateMutability": "nonpayable",
      "type": "function"
    },
    {
      "inputs": [],
      "name": "renounceOwnership",
      "outputs": [],
      "stateMutability": "nonpayable",
      "type": "function"
    },
    {
      "inputs": [
        {
          "internalType": "uint256",
          "name": "taskId",
          "type": "uint256"
        }
      ],
      "name": "requestDispute",
      "outputs": [],
      "stateMutability": "nonpayable",
      "type": "function"
    },
    {
      "inputs": [
        {
          "internalType": "uint256",
          "name": "taskId",
          "type": "uint256"
        },
        {
          "internalType": "string",
          "name": "prove",
          "type": "string"
        },
        {
          "internalType": "uint8",
          "name": "creatorPercentage",
          "type": "uint8"
        },
        {
          "internalType": "uint8",
          "name": "providerPercentage",
          "type": "uint8"
        }
      ],
      "name": "resolveDispute",
      "outputs": [],
      "stateMutability": "nonpayable",
      "type": "function"
    },
    {
      "inputs": [
        {
          "internalType": "uint256",
          "name": "taskId",
          "type": "uint256"
        },
        {
          "internalType": "uint8",
          "name": "providerRating",
          "type": "uint8"
        },
        {
          "internalType": "string",
          "name": "commentForProvider",
          "type": "string"
        }
      ],
      "name": "setTaskCompleted",
      "outputs": [],
      "stateMutability": "nonpayable",
      "type": "function"
    },
    {
      "inputs": [
        {
          "internalType": "uint256",
          "name": "taskId",
          "type": "uint256"
        },
        {
          "internalType": "address",
          "name": "provider",
          "type": "address"
        }
      ],
      "name": "startTask",
      "outputs": [],
      "stateMutability": "nonpayable",
      "type": "function"
    },
    {
      "inputs": [
        {
          "internalType": "uint256",
          "name": "taskId",
          "type": "uint256"
        },
        {
          "internalType": "string",
          "name": "submission",
          "type": "string"
        }
      ],
      "name": "submitResult",
      "outputs": [],
      "stateMutability": "nonpayable",
      "type": "function"
    },
    {
      "inputs": [],
      "name": "taskCount",
      "outputs": [
        {
          "internalType": "uint256",
          "name": "",
          "type": "uint256"
        }
      ],
      "stateMutability": "view",
      "type": "function"
    },
    {
      "inputs": [
        {
          "internalType": "uint256",
          "name": "",
          "type": "uint256"
        }
      ],
      "name": "tasks",
      "outputs": [
        {
          "internalType": "uint256",
          "name": "createdTime",
          "type": "uint256"
        },
        {
          "internalType": "uint256",
          "name": "startTime",
          "type": "uint256"
        },
        {
          "internalType": "uint256",
          "name": "duration",
          "type": "uint256"
        },
        {
          "internalType": "uint256",
          "name": "salary",
          "type": "uint256"
        },
        {
          "internalType": "uint256",
          "name": "deposit",
          "type": "uint256"
        },
        {
          "internalType": "address",
          "name": "creator",
          "type": "address"
        },
        {
          "internalType": "address",
          "name": "provider",
          "type": "address"
        },
        {
          "internalType": "enum TasksV1.TaskStatus",
          "name": "status",
          "type": "uint8"
        },
        {
          "internalType": "string",
          "name": "jobDesc",
          "type": "string"
        },
        {
          "internalType": "string",
          "name": "submission",
          "type": "string"
        },
        {
          "internalType": "string",
          "name": "disputeResult",
          "type": "string"
        }
      ],
      "stateMutability": "view",
      "type": "function"
    },
    {
      "inputs": [
        {
          "internalType": "uint256",
          "name": "",
          "type": "uint256"
        }
      ],
      "name": "tasksRating",
      "outputs": [
        {
          "internalType": "uint8",
          "name": "creatorRating",
          "type": "uint8"
        },
        {
          "internalType": "uint8",
          "name": "providerRating",
          "type": "uint8"
        },
        {
          "internalType": "string",
          "name": "commentForCreator",
          "type": "string"
        },
        {
          "internalType": "string",
          "name": "commentForProvider",
          "type": "string"
        }
      ],
      "stateMutability": "view",
      "type": "function"
    },
    {
      "inputs": [
        {
          "internalType": "address",
          "name": "newOwner",
          "type": "address"
        }
      ],
      "name": "transferOwnership",
      "outputs": [],
      "stateMutability": "nonpayable",
      "type": "function"
    },
    {
      "inputs": [
        {
          "internalType": "uint32",
          "name": "_unlockTime",
          "type": "uint32"
        }
      ],
      "name": "updateUnlockTime",
      "outputs": [],
      "stateMutability": "nonpayable",
      "type": "function"
    },
    {
      "inputs": [
        {
          "internalType": "uint256",
          "name": "taskId",
          "type": "uint256"
        }
      ],
      "name": "withdrawApplication",
      "outputs": [],
      "stateMutability": "nonpayable",
      "type": "function"
    },
    {
      "inputs": [
        {
          "internalType": "uint256",
          "name": "taskId",
          "type": "uint256"
        }
      ],
      "name": "withdrawDeposit",
      "outputs": [],
      "stateMutability": "nonpayable",
      "type": "function"
    }
  ],
  "bytecode": "0x60806040526001805562278d00600860006101000a81548163ffffffff021916908363ffffffff1602179055503480156200003957600080fd5b506200005a6200004e6200006060201b60201c565b6200006860201b60201c565b6200012c565b600033905090565b60008060009054906101000a900473ffffffffffffffffffffffffffffffffffffffff169050816000806101000a81548173ffffffffffffffffffffffffffffffffffffffff021916908373ffffffffffffffffffffffffffffffffffffffff1602179055508173ffffffffffffffffffffffffffffffffffffffff168173ffffffffffffffffffffffffffffffffffffffff167f8be0079c531659141344cd1fd0a4f28419497f9722a3daafe3b4186f6b6457e060405160405180910390a35050565b615354806200013c6000396000f3fe6080604052600436106101b75760003560e01c80638da5cb5b116100ec578063c6930a451161008a578063eff4fca911610064578063eff4fca914610637578063f1d5314a14610677578063f2fde38b146106a0578063fb8360eb146106c9576101b7565b8063c6930a45146105a8578063e25aa1db146105d1578063eea3f82d146105fa576101b7565b8063abf2836d116100c6578063abf2836d146104ee578063b6cb58a51461052b578063bfc2d0eb14610556578063c41a49d51461057f576101b7565b80638da5cb5b1461045d578063a6d87df414610488578063ab957b13146104c5576101b7565b8063715018a611610159578063841c908d11610133578063841c908d146103945780638524ac98146103d15780638c0dd79a146103ed5780638d97767214610416576101b7565b8063715018a61461032b5780637eec20a81461034257806380d929dd1461036b576101b7565b806337b9fcf41161019557806337b9fcf41461025f5780635153d4e11461029c57806357984ad6146102d95780635e61235a14610302576101b7565b80631c52f359146101bc5780631dace9d7146101f957806333289a4614610236575b600080fd5b3480156101c857600080fd5b506101e360048036038101906101de919061372d565b610706565b6040516101f09190613788565b60405180910390f35b34801561020557600080fd5b50610220600480360381019061021b91906137a3565b610827565b60405161022d919061388e565b60405180910390f35b34801561024257600080fd5b5061025d600480360381019061025891906138b0565b6108be565b005b34801561026b57600080fd5b5061028660048036038101906102819190613902565b610c0c565b6040516102939190613c04565b60405180910390f35b3480156102a857600080fd5b506102c360048036038101906102be9190613c26565b611083565b6040516102d09190613c75565b60405180910390f35b3480156102e557600080fd5b5061030060048036038101906102fb91906138b0565b6110d1565b005b34801561030e57600080fd5b5061032960048036038101906103249190613dfe565b611396565b005b34801561033757600080fd5b506103406117b9565b005b34801561034e57600080fd5b50610369600480360381019061036491906138b0565b6117cd565b005b34801561037757600080fd5b50610392600480360381019061038d91906138b0565b611979565b005b3480156103a057600080fd5b506103bb60048036038101906103b69190613e81565b611b91565b6040516103c89190613ed0565b60405180910390f35b6103eb60048036038101906103e69190613f4b565b611bc2565b005b3480156103f957600080fd5b50610414600480360381019061040f9190613fdb565b611ee4565b005b34801561042257600080fd5b5061043d600480360381019061043891906138b0565b612076565b6040516104549b9a99989796959493929190614090565b60405180910390f35b34801561046957600080fd5b506104726122b5565b60405161047f9190613c75565b60405180910390f35b34801561049457600080fd5b506104af60048036038101906104aa9190613e81565b6122de565b6040516104bc9190613ed0565b60405180910390f35b3480156104d157600080fd5b506104ec60048036038101906104e79190614150565b61230f565b005b3480156104fa57600080fd5b5061051560048036038101906105109190613e81565b6125ee565b6040516105229190613ed0565b60405180910390f35b34801561053757600080fd5b5061054061261f565b60405161054d9190613ed0565b60405180910390f35b34801561056257600080fd5b5061057d60048036038101906105789190614150565b612625565b005b34801561058b57600080fd5b506105a660048036038101906105a1919061372d565b612976565b005b3480156105b457600080fd5b506105cf60048036038101906105ca9190614150565b612bdc565b005b3480156105dd57600080fd5b506105f860048036038101906105f391906141fb565b612dfd565b005b34801561060657600080fd5b50610621600480360381019061061c91906138b0565b612e29565b60405161062e91906142d7565b60405180910390f35b34801561064357600080fd5b5061065e600480360381019061065991906138b0565b612eca565b60405161066e9493929190614308565b60405180910390f35b34801561068357600080fd5b5061069e600480360381019061069991906138b0565b613024565b005b3480156106ac57600080fd5b506106c760048036038101906106c291906137a3565b613103565b005b3480156106d557600080fd5b506106f060048036038101906106eb91906137a3565b613186565b6040516106fd919061388e565b60405180910390f35b6000806005600085815260200190815260200160002080548060200260200160405190810160405280929190818152602001828054801561079c57602002820191906000526020600020905b8160009054906101000a900473ffffffffffffffffffffffffffffffffffffffff1673ffffffffffffffffffffffffffffffffffffffff1681526020019060010190808311610752575b5050505050905060005b815181101561081a578373ffffffffffffffffffffffffffffffffffffffff168282815181106107d9576107d861435b565b5b602002602001015173ffffffffffffffffffffffffffffffffffffffff160361080757600192505050610821565b8080610812906143b9565b9150506107a6565b5060009150505b92915050565b6060600260008373ffffffffffffffffffffffffffffffffffffffff1673ffffffffffffffffffffffffffffffffffffffff1681526020019081526020016000208054806020026020016040519081016040528092919081815260200182805480156108b257602002820191906000526020600020905b81548152602001906001019080831161089e575b50505050509050919050565b3373ffffffffffffffffffffffffffffffffffffffff166006600083815260200190815260200160002060050160009054906101000a900473ffffffffffffffffffffffffffffffffffffffff1673ffffffffffffffffffffffffffffffffffffffff1614610962576040517f08c379a00000000000000000000000000000000000000000000000000000000081526004016109599061444d565b60405180910390fd5b60006006600083815260200190815260200160002060040154116109bb576040517f08c379a00000000000000000000000000000000000000000000000000000000081526004016109b2906144b9565b60405180910390fd5b6005808111156109ce576109cd61396a565b5b6006600083815260200190815260200160002060060160149054906101000a900460ff166005811115610a0457610a0361396a565b5b1480610a79575060016005811115610a1f57610a1e61396a565b5b6006600083815260200190815260200160002060060160149054906101000a900460ff166005811115610a5557610a5461396a565b5b148015610a78575060006005600083815260200190815260200160002080549050145b5b80610b0f575060016005811115610a9357610a9261396a565b5b6006600083815260200190815260200160002060060160149054906101000a900460ff166005811115610ac957610ac861396a565b5b148015610b0e5750600860009054906101000a900463ffffffff1663ffffffff166006600083815260200190815260200160002060000154610b0b91906144d9565b42115b5b610b4e576040517f08c379a0000000000000000000000000000000000000000000000000000000008152600401610b4590614559565b60405180910390fd5b600060066000838152602001908152602001600020600401549050600060066000848152602001908152602001600020600401819055503373ffffffffffffffffffffffffffffffffffffffff166108fc829081150290604051600060405180830381858888f19350505050158015610bcb573d6000803e3d6000fd5b507f9888438c7b0c8ddcea7ef76171405294a443312c4dc2dde65fee6a2f150eb7d282336001604051610c00939291906145c1565b60405180910390a15050565b6060600080600190505b600154811015610c9057836005811115610c3357610c3261396a565b5b6006600083815260200190815260200160002060060160149054906101000a900460ff166005811115610c6957610c6861396a565b5b03610c7d578180610c79906143b9565b9250505b8080610c88906143b9565b915050610c16565b5060008167ffffffffffffffff811115610cad57610cac613c9a565b5b604051908082528060200260200182016040528015610ce657816020015b610cd361352c565b815260200190600190039081610ccb5790505b509050600080600190505b60015481101561107757856005811115610d0e57610d0d61396a565b5b6006600083815260200190815260200160002060060160149054906101000a900460ff166005811115610d4457610d4361396a565b5b0361106457600660008281526020019081526020016000206040518061016001604052908160008201548152602001600182015481526020016002820154815260200160038201548152602001600482015481526020016005820160009054906101000a900473ffffffffffffffffffffffffffffffffffffffff1673ffffffffffffffffffffffffffffffffffffffff1673ffffffffffffffffffffffffffffffffffffffff1681526020016006820160009054906101000a900473ffffffffffffffffffffffffffffffffffffffff1673ffffffffffffffffffffffffffffffffffffffff1673ffffffffffffffffffffffffffffffffffffffff1681526020016006820160149054906101000a900460ff166005811115610e6b57610e6a61396a565b5b6005811115610e7d57610e7c61396a565b5b8152602001600782018054610e9190614627565b80601f0160208091040260200160405190810160405280929190818152602001828054610ebd90614627565b8015610f0a5780601f10610edf57610100808354040283529160200191610f0a565b820191906000526020600020905b815481529060010190602001808311610eed57829003601f168201915b50505050508152602001600882018054610f2390614627565b80601f0160208091040260200160405190810160405280929190818152602001828054610f4f90614627565b8015610f9c5780601f10610f7157610100808354040283529160200191610f9c565b820191906000526020600020905b815481529060010190602001808311610f7f57829003601f168201915b50505050508152602001600982018054610fb590614627565b80601f0160208091040260200160405190810160405280929190818152602001828054610fe190614627565b801561102e5780601f106110035761010080835404028352916020019161102e565b820191906000526020600020905b81548152906001019060200180831161101157829003601f168201915b50505050508152505083838151811061104a5761104961435b565b5b60200260200101819052508180611060906143b9565b9250505b808061106f906143b9565b915050610cf1565b50819350505050919050565b6005602052816000526040600020818154811061109f57600080fd5b906000526020600020016000915091509054906101000a900473ffffffffffffffffffffffffffffffffffffffff1681565b600060058111156110e5576110e461396a565b5b6006600083815260200190815260200160002060060160149054906101000a900460ff16600581111561111b5761111a61396a565b5b1461115b576040517f08c379a0000000000000000000000000000000000000000000000000000000008152600401611152906146a4565b60405180910390fd5b3373ffffffffffffffffffffffffffffffffffffffff166006600083815260200190815260200160002060050160009054906101000a900473ffffffffffffffffffffffffffffffffffffffff1673ffffffffffffffffffffffffffffffffffffffff16036111ff576040517f08c379a00000000000000000000000000000000000000000000000000000000081526004016111f690614710565b60405180910390fd5b600060056000838152602001908152602001600020905080339080600181540180825580915050600190039060005260206000200160009091909190916101000a81548173ffffffffffffffffffffffffffffffffffffffff021916908373ffffffffffffffffffffffffffffffffffffffff160217905550806005600084815260200190815260200160002090805461129a9291906135c4565b506000600460003373ffffffffffffffffffffffffffffffffffffffff1673ffffffffffffffffffffffffffffffffffffffff16815260200190815260200160002090508083908060018154018082558091505060019003906000526020600020016000909190919091505580600460003373ffffffffffffffffffffffffffffffffffffffff1673ffffffffffffffffffffffffffffffffffffffff168152602001908152602001600020908054611354929190613616565b507f9888438c7b0c8ddcea7ef76171405294a443312c4dc2dde65fee6a2f150eb7d283336002604051611389939291906145c1565b60405180910390a1505050565b61139e61321d565b606481836113ac9190614730565b60ff16146113ef576040517f08c379a00000000000000000000000000000000000000000000000000000000081526004016113e6906147b1565b60405180910390fd5b600460058111156114035761140261396a565b5b6006600086815260200190815260200160002060060160149054906101000a900460ff1660058111156114395761143861396a565b5b14611479576040517f08c379a00000000000000000000000000000000000000000000000000000000081526004016114709061481d565b60405180910390fd5b60036006600086815260200190815260200160002060060160146101000a81548160ff021916908360058111156114b3576114b261396a565b5b0217905550826006600086815260200190815260200160002060090190816114db91906149e9565b506000600660008681526020019081526020016000206004015490506000600660008781526020019081526020016000206004018190555060008360ff16118015611529575060008260ff16115b1561165e57600060648460ff16836115419190614abb565b61154b9190614b2c565b90506000818361155b9190614b5d565b90506006600088815260200190815260200160002060050160009054906101000a900473ffffffffffffffffffffffffffffffffffffffff1673ffffffffffffffffffffffffffffffffffffffff166108fc839081150290604051600060405180830381858888f193505050501580156115d9573d6000803e3d6000fd5b506006600088815260200190815260200160002060060160009054906101000a900473ffffffffffffffffffffffffffffffffffffffff1673ffffffffffffffffffffffffffffffffffffffff166108fc829081150290604051600060405180830381858888f19350505050158015611656573d6000803e3d6000fd5b505050611776565b60648360ff16036116eb576006600086815260200190815260200160002060050160009054906101000a900473ffffffffffffffffffffffffffffffffffffffff1673ffffffffffffffffffffffffffffffffffffffff166108fc829081150290604051600060405180830381858888f193505050501580156116e5573d6000803e3d6000fd5b50611775565b60648260ff1603611774576006600086815260200190815260200160002060060160009054906101000a900473ffffffffffffffffffffffffffffffffffffffff1673ffffffffffffffffffffffffffffffffffffffff166108fc829081150290604051600060405180830381858888f19350505050158015611772573d6000803e3d6000fd5b505b5b5b7f9888438c7b0c8ddcea7ef76171405294a443312c4dc2dde65fee6a2f150eb7d2853360096040516117aa939291906145c1565b60405180910390a15050505050565b6117c161321d565b6117cb600061329b565b565b3373ffffffffffffffffffffffffffffffffffffffff166006600083815260200190815260200160002060050160009054906101000a900473ffffffffffffffffffffffffffffffffffffffff1673ffffffffffffffffffffffffffffffffffffffff1614611871576040517f08c379a00000000000000000000000000000000000000000000000000000000081526004016118689061444d565b60405180910390fd5b600060058111156118855761188461396a565b5b6006600083815260200190815260200160002060060160149054906101000a900460ff1660058111156118bb576118ba61396a565b5b146118fb576040517f08c379a00000000000000000000000000000000000000000000000000000000081526004016118f290614bdd565b60405180910390fd5b60016006600083815260200190815260200160002060060160146101000a81548160ff021916908360058111156119355761193461396a565b5b02179055507f9888438c7b0c8ddcea7ef76171405294a443312c4dc2dde65fee6a2f150eb7d28133600060405161196e939291906145c1565b60405180910390a150565b3373ffffffffffffffffffffffffffffffffffffffff166006600083815260200190815260200160002060060160009054906101000a900473ffffffffffffffffffffffffffffffffffffffff1673ffffffffffffffffffffffffffffffffffffffff161480611a4a57503373ffffffffffffffffffffffffffffffffffffffff166006600083815260200190815260200160002060050160009054906101000a900473ffffffffffffffffffffffffffffffffffffffff1673ffffffffffffffffffffffffffffffffffffffff16145b611a89576040517f08c379a0000000000000000000000000000000000000000000000000000000008152600401611a8090614c49565b60405180910390fd5b60026005811115611a9d57611a9c61396a565b5b6006600083815260200190815260200160002060060160149054906101000a900460ff166005811115611ad357611ad261396a565b5b14611b13576040517f08c379a0000000000000000000000000000000000000000000000000000000008152600401611b0a90614cb5565b60405180910390fd5b60046006600083815260200190815260200160002060060160146101000a81548160ff02191690836005811115611b4d57611b4c61396a565b5b02179055507f9888438c7b0c8ddcea7ef76171405294a443312c4dc2dde65fee6a2f150eb7d281336008604051611b86939291906145c1565b60405180910390a150565b60046020528160005260406000208181548110611bad57600080fd5b90600052602060002001600091509150505481565b60003390506000604051806101600160405280428152602001600081526020018781526020013481526020013481526020018373ffffffffffffffffffffffffffffffffffffffff168152602001600073ffffffffffffffffffffffffffffffffffffffff16815260200160006005811115611c4157611c4061396a565b5b81526020018681526020016040518060200160405280600081525081526020016040518060200160405280600081525081525090506000600154905060016000815480929190611c90906143b9565b91905055506000600260008573ffffffffffffffffffffffffffffffffffffffff1673ffffffffffffffffffffffffffffffffffffffff16815260200190815260200160002090508082908060018154018082558091505060019003906000526020600020016000909190919091505580600260008673ffffffffffffffffffffffffffffffffffffffff1673ffffffffffffffffffffffffffffffffffffffff168152602001908152602001600020908054611d4e929190613616565b508260066000848152602001908152602001600020600082015181600001556020820151816001015560408201518160020155606082015181600301556080820151816004015560a08201518160050160006101000a81548173ffffffffffffffffffffffffffffffffffffffff021916908373ffffffffffffffffffffffffffffffffffffffff16021790555060c08201518160060160006101000a81548173ffffffffffffffffffffffffffffffffffffffff021916908373ffffffffffffffffffffffffffffffffffffffff16021790555060e08201518160060160146101000a81548160ff02191690836005811115611e4e57611e4d61396a565b5b0217905550610100820151816007019081611e6991906149e9565b50610120820151816008019081611e8091906149e9565b50610140820151816009019081611e9791906149e9565b509050507fadca11b273fe1ba007c6a34b6348e66e3650c3c46cd1bbd731f1b8b4d583945c8284868989604051611ed2959493929190614dff565b60405180910390a15050505050505050565b3373ffffffffffffffffffffffffffffffffffffffff166006600084815260200190815260200160002060060160009054906101000a900473ffffffffffffffffffffffffffffffffffffffff1673ffffffffffffffffffffffffffffffffffffffff1614611f88576040517f08c379a0000000000000000000000000000000000000000000000000000000008152600401611f7f90614ea0565b60405180910390fd5b60026005811115611f9c57611f9b61396a565b5b6006600084815260200190815260200160002060060160149054906101000a900460ff166005811115611fd257611fd161396a565b5b14612012576040517f08c379a000000000000000000000000000000000000000000000000000000000815260040161200990614cb5565b60405180910390fd5b8060066000848152602001908152602001600020600801908161203591906149e9565b507f9888438c7b0c8ddcea7ef76171405294a443312c4dc2dde65fee6a2f150eb7d28233600660405161206a939291906145c1565b60405180910390a15050565b60066020528060005260406000206000915090508060000154908060010154908060020154908060030154908060040154908060050160009054906101000a900473ffffffffffffffffffffffffffffffffffffffff16908060060160009054906101000a900473ffffffffffffffffffffffffffffffffffffffff16908060060160149054906101000a900460ff169080600701805461211690614627565b80601f016020809104026020016040519081016040528092919081815260200182805461214290614627565b801561218f5780601f106121645761010080835404028352916020019161218f565b820191906000526020600020905b81548152906001019060200180831161217257829003601f168201915b5050505050908060080180546121a490614627565b80601f01602080910402602001604051908101604052809291908181526020018280546121d090614627565b801561221d5780601f106121f25761010080835404028352916020019161221d565b820191906000526020600020905b81548152906001019060200180831161220057829003601f168201915b50505050509080600901805461223290614627565b80601f016020809104026020016040519081016040528092919081815260200182805461225e90614627565b80156122ab5780601f10612280576101008083540402835291602001916122ab565b820191906000526020600020905b81548152906001019060200180831161228e57829003601f168201915b505050505090508b565b60008060009054906101000a900473ffffffffffffffffffffffffffffffffffffffff16905090565b600260205281600052604060002081815481106122fa57600080fd5b90600052602060002001600091509150505481565b600260058111156123235761232261396a565b5b6006600085815260200190815260200160002060060160149054906101000a900460ff1660058111156123595761235861396a565b5b14612399576040517f08c379a000000000000000000000000000000000000000000000000000000000815260040161239090614f0c565b60405180910390fd5b3373ffffffffffffffffffffffffffffffffffffffff166006600085815260200190815260200160002060050160009054906101000a900473ffffffffffffffffffffffffffffffffffffffff1673ffffffffffffffffffffffffffffffffffffffff161461243d576040517f08c379a000000000000000000000000000000000000000000000000000000000815260040161243490614f78565b60405180910390fd5b6006600084815260200190815260200160002060020154600660008581526020019081526020016000206001015461247591906144d9565b42116124b6576040517f08c379a00000000000000000000000000000000000000000000000000000000081526004016124ad90614fe4565b60405180910390fd5b60006006600085815260200190815260200160002060080180546124d990614627565b90501461251b576040517f08c379a000000000000000000000000000000000000000000000000000000000815260040161251290615050565b60405180910390fd5b60056006600085815260200190815260200160002060060160146101000a81548160ff021916908360058111156125555761255461396a565b5b0217905550816007600085815260200190815260200160002060000160016101000a81548160ff021916908360ff160217905550806007600085815260200190815260200160002060020190816125ac91906149e9565b507f9888438c7b0c8ddcea7ef76171405294a443312c4dc2dde65fee6a2f150eb7d2833360056040516125e1939291906145c1565b60405180910390a1505050565b6003602052816000526040600020818154811061260a57600080fd5b90600052602060002001600091509150505481565b60015481565b3373ffffffffffffffffffffffffffffffffffffffff166006600085815260200190815260200160002060050160009054906101000a900473ffffffffffffffffffffffffffffffffffffffff1673ffffffffffffffffffffffffffffffffffffffff16146126c9576040517f08c379a00000000000000000000000000000000000000000000000000000000081526004016126c09061444d565b60405180910390fd5b600260058111156126dd576126dc61396a565b5b6006600085815260200190815260200160002060060160149054906101000a900460ff1660058111156127135761271261396a565b5b14612753576040517f08c379a000000000000000000000000000000000000000000000000000000000815260040161274a90614cb5565b60405180910390fd5b60008260ff161015801561276b575060058260ff1611155b6127aa576040517f08c379a00000000000000000000000000000000000000000000000000000000081526004016127a1906150bc565b60405180910390fd5b60008151116127ee576040517f08c379a00000000000000000000000000000000000000000000000000000000081526004016127e590615128565b60405180910390fd5b60036006600085815260200190815260200160002060060160146101000a81548160ff021916908360058111156128285761282761396a565b5b0217905550816007600085815260200190815260200160002060000160016101000a81548160ff021916908360ff1602179055508060076000858152602001908152602001600020600201908161287f91906149e9565b50600060066000858152602001908152602001600020600401549050600060066000868152602001908152602001600020600401819055506006600085815260200190815260200160002060060160009054906101000a900473ffffffffffffffffffffffffffffffffffffffff1673ffffffffffffffffffffffffffffffffffffffff166108fc829081150290604051600060405180830381858888f19350505050158015612933573d6000803e3d6000fd5b507f9888438c7b0c8ddcea7ef76171405294a443312c4dc2dde65fee6a2f150eb7d284336007604051612968939291906145c1565b60405180910390a150505050565b6000600581111561298a5761298961396a565b5b6006600084815260200190815260200160002060060160149054906101000a900460ff1660058111156129c0576129bf61396a565b5b14612a00576040517f08c379a00000000000000000000000000000000000000000000000000000000081526004016129f7906146a4565b60405180910390fd5b3373ffffffffffffffffffffffffffffffffffffffff166006600084815260200190815260200160002060050160009054906101000a900473ffffffffffffffffffffffffffffffffffffffff1673ffffffffffffffffffffffffffffffffffffffff1614612aa4576040517f08c379a0000000000000000000000000000000000000000000000000000000008152600401612a9b90614f78565b60405180910390fd5b612aae8282610706565b612aed576040517f08c379a0000000000000000000000000000000000000000000000000000000008152600401612ae490615194565b60405180910390fd5b806006600084815260200190815260200160002060060160006101000a81548173ffffffffffffffffffffffffffffffffffffffff021916908373ffffffffffffffffffffffffffffffffffffffff16021790555060026006600084815260200190815260200160002060060160146101000a81548160ff02191690836005811115612b7c57612b7b61396a565b5b02179055504260066000848152602001908152602001600020600101819055507f9888438c7b0c8ddcea7ef76171405294a443312c4dc2dde65fee6a2f150eb7d282336004604051612bd0939291906145c1565b60405180910390a15050565b3373ffffffffffffffffffffffffffffffffffffffff166006600085815260200190815260200160002060060160009054906101000a900473ffffffffffffffffffffffffffffffffffffffff1673ffffffffffffffffffffffffffffffffffffffff1614612c80576040517f08c379a0000000000000000000000000000000000000000000000000000000008152600401612c7790614ea0565b60405180910390fd5b60036005811115612c9457612c9361396a565b5b6006600085815260200190815260200160002060060160149054906101000a900460ff166005811115612cca57612cc961396a565b5b14612d0a576040517f08c379a0000000000000000000000000000000000000000000000000000000008152600401612d0190615200565b60405180910390fd5b60008260ff1610158015612d22575060058260ff1611155b612d61576040517f08c379a0000000000000000000000000000000000000000000000000000000008152600401612d58906150bc565b60405180910390fd5b6000815111612da5576040517f08c379a0000000000000000000000000000000000000000000000000000000008152600401612d9c90615128565b60405180910390fd5b816007600085815260200190815260200160002060000160006101000a81548160ff021916908360ff16021790555080600760008581526020019081526020016000206001019081612df791906149e9565b50505050565b612e0561321d565b80600860006101000a81548163ffffffff021916908363ffffffff16021790555050565b606060056000838152602001908152602001600020805480602002602001604051908101604052809291908181526020018280548015612ebe57602002820191906000526020600020905b8160009054906101000a900473ffffffffffffffffffffffffffffffffffffffff1673ffffffffffffffffffffffffffffffffffffffff1681526020019060010190808311612e74575b50505050509050919050565b60076020528060005260406000206000915090508060000160009054906101000a900460ff16908060000160019054906101000a900460ff1690806001018054612f1390614627565b80601f0160208091040260200160405190810160405280929190818152602001828054612f3f90614627565b8015612f8c5780601f10612f6157610100808354040283529160200191612f8c565b820191906000526020600020905b815481529060010190602001808311612f6f57829003601f168201915b505050505090806002018054612fa190614627565b80601f0160208091040260200160405190810160405280929190818152602001828054612fcd90614627565b801561301a5780601f10612fef5761010080835404028352916020019161301a565b820191906000526020600020905b815481529060010190602001808311612ffd57829003601f168201915b5050505050905084565b600060058111156130385761303761396a565b5b6006600083815260200190815260200160002060060160149054906101000a900460ff16600581111561306e5761306d61396a565b5b146130ae576040517f08c379a00000000000000000000000000000000000000000000000000000000081526004016130a5906146a4565b60405180910390fd5b6130b8813361335f565b506130c38133613461565b507f9888438c7b0c8ddcea7ef76171405294a443312c4dc2dde65fee6a2f150eb7d2813360036040516130f8939291906145c1565b60405180910390a150565b61310b61321d565b600073ffffffffffffffffffffffffffffffffffffffff168173ffffffffffffffffffffffffffffffffffffffff160361317a576040517f08c379a000000000000000000000000000000000000000000000000000000000815260040161317190615292565b60405180910390fd5b6131838161329b565b50565b6060600460008373ffffffffffffffffffffffffffffffffffffffff1673ffffffffffffffffffffffffffffffffffffffff16815260200190815260200160002080548060200260200160405190810160405280929190818152602001828054801561321157602002820191906000526020600020905b8154815260200190600101908083116131fd575b50505050509050919050565b613225613524565b73ffffffffffffffffffffffffffffffffffffffff166132436122b5565b73ffffffffffffffffffffffffffffffffffffffff1614613299576040517f08c379a0000000000000000000000000000000000000000000000000000000008152600401613290906152fe565b60405180910390fd5b565b60008060009054906101000a900473ffffffffffffffffffffffffffffffffffffffff169050816000806101000a81548173ffffffffffffffffffffffffffffffffffffffff021916908373ffffffffffffffffffffffffffffffffffffffff1602179055508173ffffffffffffffffffffffffffffffffffffffff168173ffffffffffffffffffffffffffffffffffffffff167f8be0079c531659141344cd1fd0a4f28419497f9722a3daafe3b4186f6b6457e060405160405180910390a35050565b60008060056000858152602001908152602001600020905060005b8180549050811015613454578373ffffffffffffffffffffffffffffffffffffffff168282815481106133b0576133af61435b565b5b9060005260206000200160009054906101000a900473ffffffffffffffffffffffffffffffffffffffff1673ffffffffffffffffffffffffffffffffffffffff1603613441578181815481106134095761340861435b565b5b9060005260206000200160006101000a81549073ffffffffffffffffffffffffffffffffffffffff021916905560019250505061345b565b808061344c906143b9565b91505061337a565b5060019150505b92915050565b600080600460008473ffffffffffffffffffffffffffffffffffffffff1673ffffffffffffffffffffffffffffffffffffffff168152602001908152602001600020905060005b818054905081101561351757848282815481106134c8576134c761435b565b5b906000526020600020015403613504578181815481106134eb576134ea61435b565b5b906000526020600020016000905560019250505061351e565b808061350f906143b9565b9150506134a8565b5060009150505b92915050565b600033905090565b6040518061016001604052806000815260200160008152602001600081526020016000815260200160008152602001600073ffffffffffffffffffffffffffffffffffffffff168152602001600073ffffffffffffffffffffffffffffffffffffffff168152602001600060058111156135a9576135a861396a565b5b81526020016060815260200160608152602001606081525090565b8280548282559060005260206000209081019282156136055760005260206000209182015b828111156136045782548255916001019190600101906135e9565b5b5090506136129190613668565b5090565b8280548282559060005260206000209081019282156136575760005260206000209182015b8281111561365657825482559160010191906001019061363b565b5b5090506136649190613668565b5090565b5b80821115613681576000816000905550600101613669565b5090565b6000604051905090565b600080fd5b600080fd5b6000819050919050565b6136ac81613699565b81146136b757600080fd5b50565b6000813590506136c9816136a3565b92915050565b600073ffffffffffffffffffffffffffffffffffffffff82169050919050565b60006136fa826136cf565b9050919050565b61370a816136ef565b811461371557600080fd5b50565b60008135905061372781613701565b92915050565b600080604083850312156137445761374361368f565b5b6000613752858286016136ba565b925050602061376385828601613718565b9150509250929050565b60008115159050919050565b6137828161376d565b82525050565b600060208201905061379d6000830184613779565b92915050565b6000602082840312156137b9576137b861368f565b5b60006137c784828501613718565b91505092915050565b600081519050919050565b600082825260208201905092915050565b6000819050602082019050919050565b61380581613699565b82525050565b600061381783836137fc565b60208301905092915050565b6000602082019050919050565b600061383b826137d0565b61384581856137db565b9350613850836137ec565b8060005b83811015613881578151613868888261380b565b975061387383613823565b925050600181019050613854565b5085935050505092915050565b600060208201905081810360008301526138a88184613830565b905092915050565b6000602082840312156138c6576138c561368f565b5b60006138d4848285016136ba565b91505092915050565b600681106138ea57600080fd5b50565b6000813590506138fc816138dd565b92915050565b6000602082840312156139185761391761368f565b5b6000613926848285016138ed565b91505092915050565b600081519050919050565b600082825260208201905092915050565b6000819050602082019050919050565b613964816136ef565b82525050565b7f4e487b7100000000000000000000000000000000000000000000000000000000600052602160045260246000fd5b600681106139aa576139a961396a565b5b50565b60008190506139bb82613999565b919050565b60006139cb826139ad565b9050919050565b6139db816139c0565b82525050565b600081519050919050565b600082825260208201905092915050565b60005b83811015613a1b578082015181840152602081019050613a00565b60008484015250505050565b6000601f19601f8301169050919050565b6000613a43826139e1565b613a4d81856139ec565b9350613a5d8185602086016139fd565b613a6681613a27565b840191505092915050565b600061016083016000830151613a8a60008601826137fc565b506020830151613a9d60208601826137fc565b506040830151613ab060408601826137fc565b506060830151613ac360608601826137fc565b506080830151613ad660808601826137fc565b5060a0830151613ae960a086018261395b565b5060c0830151613afc60c086018261395b565b5060e0830151613b0f60e08601826139d2565b50610100830151848203610100860152613b298282613a38565b915050610120830151848203610120860152613b458282613a38565b915050610140830151848203610140860152613b618282613a38565b9150508091505092915050565b6000613b7a8383613a71565b905092915050565b6000602082019050919050565b6000613b9a8261392f565b613ba4818561393a565b935083602082028501613bb68561394b565b8060005b85811015613bf25784840389528151613bd38582613b6e565b9450613bde83613b82565b925060208a01995050600181019050613bba565b50829750879550505050505092915050565b60006020820190508181036000830152613c1e8184613b8f565b905092915050565b60008060408385031215613c3d57613c3c61368f565b5b6000613c4b858286016136ba565b9250506020613c5c858286016136ba565b9150509250929050565b613c6f816136ef565b82525050565b6000602082019050613c8a6000830184613c66565b92915050565b600080fd5b600080fd5b7f4e487b7100000000000000000000000000000000000000000000000000000000600052604160045260246000fd5b613cd282613a27565b810181811067ffffffffffffffff82111715613cf157613cf0613c9a565b5b80604052505050565b6000613d04613685565b9050613d108282613cc9565b919050565b600067ffffffffffffffff821115613d3057613d2f613c9a565b5b613d3982613a27565b9050602081019050919050565b82818337600083830152505050565b6000613d68613d6384613d15565b613cfa565b905082815260208101848484011115613d8457613d83613c95565b5b613d8f848285613d46565b509392505050565b600082601f830112613dac57613dab613c90565b5b8135613dbc848260208601613d55565b91505092915050565b600060ff82169050919050565b613ddb81613dc5565b8114613de657600080fd5b50565b600081359050613df881613dd2565b92915050565b60008060008060808587031215613e1857613e1761368f565b5b6000613e26878288016136ba565b945050602085013567ffffffffffffffff811115613e4757613e46613694565b5b613e5387828801613d97565b9350506040613e6487828801613de9565b9250506060613e7587828801613de9565b91505092959194509250565b60008060408385031215613e9857613e9761368f565b5b6000613ea685828601613718565b9250506020613eb7858286016136ba565b9150509250929050565b613eca81613699565b82525050565b6000602082019050613ee56000830184613ec1565b92915050565b600080fd5b600080fd5b60008083601f840112613f0b57613f0a613c90565b5b8235905067ffffffffffffffff811115613f2857613f27613eeb565b5b602083019150836001820283011115613f4457613f43613ef0565b5b9250929050565b60008060008060608587031215613f6557613f6461368f565b5b6000613f73878288016136ba565b945050602085013567ffffffffffffffff811115613f9457613f93613694565b5b613fa087828801613d97565b935050604085013567ffffffffffffffff811115613fc157613fc0613694565b5b613fcd87828801613ef5565b925092505092959194509250565b60008060408385031215613ff257613ff161368f565b5b6000614000858286016136ba565b925050602083013567ffffffffffffffff81111561402157614020613694565b5b61402d85828601613d97565b9150509250929050565b614040816139c0565b82525050565b600082825260208201905092915050565b6000614062826139e1565b61406c8185614046565b935061407c8185602086016139fd565b61408581613a27565b840191505092915050565b6000610160820190506140a6600083018e613ec1565b6140b3602083018d613ec1565b6140c0604083018c613ec1565b6140cd606083018b613ec1565b6140da608083018a613ec1565b6140e760a0830189613c66565b6140f460c0830188613c66565b61410160e0830187614037565b8181036101008301526141148186614057565b90508181036101208301526141298185614057565b905081810361014083015261413e8184614057565b90509c9b505050505050505050505050565b6000806000606084860312156141695761416861368f565b5b6000614177868287016136ba565b935050602061418886828701613de9565b925050604084013567ffffffffffffffff8111156141a9576141a8613694565b5b6141b586828701613d97565b9150509250925092565b600063ffffffff82169050919050565b6141d8816141bf565b81146141e357600080fd5b50565b6000813590506141f5816141cf565b92915050565b6000602082840312156142115761421061368f565b5b600061421f848285016141e6565b91505092915050565b600081519050919050565b600082825260208201905092915050565b6000819050602082019050919050565b6000614260838361395b565b60208301905092915050565b6000602082019050919050565b600061428482614228565b61428e8185614233565b935061429983614244565b8060005b838110156142ca5781516142b18882614254565b97506142bc8361426c565b92505060018101905061429d565b5085935050505092915050565b600060208201905081810360008301526142f18184614279565b905092915050565b61430281613dc5565b82525050565b600060808201905061431d60008301876142f9565b61432a60208301866142f9565b818103604083015261433c8185614057565b905081810360608301526143508184614057565b905095945050505050565b7f4e487b7100000000000000000000000000000000000000000000000000000000600052603260045260246000fd5b7f4e487b7100000000000000000000000000000000000000000000000000000000600052601160045260246000fd5b60006143c482613699565b91507fffffffffffffffffffffffffffffffffffffffffffffffffffffffffffffffff82036143f6576143f561438a565b5b600182019050919050565b7f4e6f742063726561746f72000000000000000000000000000000000000000000600082015250565b6000614437600b83614046565b915061444282614401565b602082019050919050565b600060208201905081810360008301526144668161442a565b9050919050565b7f6465706f736974206d6f72650000000000000000000000000000000000000000600082015250565b60006144a3600c83614046565b91506144ae8261446d565b602082019050919050565b600060208201905081810360008301526144d281614496565b9050919050565b60006144e482613699565b91506144ef83613699565b92508282019050808211156145075761450661438a565b5b92915050565b7f43616e6e6f742077697468647261770000000000000000000000000000000000600082015250565b6000614543600f83614046565b915061454e8261450d565b602082019050919050565b6000602082019050818103600083015261457281614536565b9050919050565b600a811061458a5761458961396a565b5b50565b600081905061459b82614579565b919050565b60006145ab8261458d565b9050919050565b6145bb816145a0565b82525050565b60006060820190506145d66000830186613ec1565b6145e36020830185613c66565b6145f060408301846145b2565b949350505050565b7f4e487b7100000000000000000000000000000000000000000000000000000000600052602260045260246000fd5b6000600282049050600182168061463f57607f821691505b602082108103614652576146516145f8565b5b50919050565b7f5461736b206e6f7420666f756e64000000000000000000000000000000000000600082015250565b600061468e600e83614046565b915061469982614658565b602082019050919050565b600060208201905081810360008301526146bd81614681565b9050919050565b7f596f7520617265207468652063726561746f7200000000000000000000000000600082015250565b60006146fa601383614046565b9150614705826146c4565b602082019050919050565b60006020820190508181036000830152614729816146ed565b9050919050565b600061473b82613dc5565b915061474683613dc5565b9250828201905060ff81111561475f5761475e61438a565b5b92915050565b7f50657263656e74616765206e6f7420636f727265637400000000000000000000600082015250565b600061479b601683614046565b91506147a682614765565b602082019050919050565b600060208201905081810360008301526147ca8161478e565b9050919050565b7f4e6f7420756e6465722064697361677265656d656e7400000000000000000000600082015250565b6000614807601683614046565b9150614812826147d1565b602082019050919050565b60006020820190508181036000830152614836816147fa565b9050919050565b60008190508160005260206000209050919050565b60006020601f8301049050919050565b600082821b905092915050565b60006008830261489f7fffffffffffffffffffffffffffffffffffffffffffffffffffffffffffffffff82614862565b6148a98683614862565b95508019841693508086168417925050509392505050565b6000819050919050565b60006148e66148e16148dc84613699565b6148c1565b613699565b9050919050565b6000819050919050565b614900836148cb565b61491461490c826148ed565b84845461486f565b825550505050565b600090565b61492961491c565b6149348184846148f7565b505050565b5b818110156149585761494d600082614921565b60018101905061493a565b5050565b601f82111561499d5761496e8161483d565b61497784614852565b81016020851015614986578190505b61499a61499285614852565b830182614939565b50505b505050565b600082821c905092915050565b60006149c0600019846008026149a2565b1980831691505092915050565b60006149d983836149af565b9150826002028217905092915050565b6149f2826139e1565b67ffffffffffffffff811115614a0b57614a0a613c9a565b5b614a158254614627565b614a2082828561495c565b600060209050601f831160018114614a535760008415614a41578287015190505b614a4b85826149cd565b865550614ab3565b601f198416614a618661483d565b60005b82811015614a8957848901518255600182019150602085019450602081019050614a64565b86831015614aa65784890151614aa2601f8916826149af565b8355505b6001600288020188555050505b505050505050565b6000614ac682613699565b9150614ad183613699565b9250828202614adf81613699565b91508282048414831517614af657614af561438a565b5b5092915050565b7f4e487b7100000000000000000000000000000000000000000000000000000000600052601260045260246000fd5b6000614b3782613699565b9150614b4283613699565b925082614b5257614b51614afd565b5b828204905092915050565b6000614b6882613699565b9150614b7383613699565b9250828203905081811115614b8b57614b8a61438a565b5b92915050565b7f5461736b206e6f74206163746976650000000000000000000000000000000000600082015250565b6000614bc7600f83614046565b9150614bd282614b91565b602082019050919050565b60006020820190508181036000830152614bf681614bba565b9050919050565b7f4e6f742070726f7669646572206f722063726561746f72000000000000000000600082015250565b6000614c33601783614046565b9150614c3e82614bfd565b602082019050919050565b60006020820190508181036000830152614c6281614c26565b9050919050565b7f4e6f742073746172746564000000000000000000000000000000000000000000600082015250565b6000614c9f600b83614046565b9150614caa82614c69565b602082019050919050565b60006020820190508181036000830152614cce81614c92565b9050919050565b600061016083016000830151614cee60008601826137fc565b506020830151614d0160208601826137fc565b506040830151614d1460408601826137fc565b506060830151614d2760608601826137fc565b506080830151614d3a60808601826137fc565b5060a0830151614d4d60a086018261395b565b5060c0830151614d6060c086018261395b565b5060e0830151614d7360e08601826139d2565b50610100830151848203610100860152614d8d8282613a38565b915050610120830151848203610120860152614da98282613a38565b915050610140830151848203610140860152614dc58282613a38565b9150508091505092915050565b6000614dde8385614046565b9350614deb838584613d46565b614df483613a27565b840190509392505050565b6000608082019050614e146000830188613ec1565b8181036020830152614e268187614cd5565b9050614e356040830186613c66565b8181036060830152614e48818486614dd2565b90509695505050505050565b7f4e6f742070726f76696465720000000000000000000000000000000000000000600082015250565b6000614e8a600c83614046565b9150614e9582614e54565b602082019050919050565b60006020820190508181036000830152614eb981614e7d565b9050919050565b7f4e6f74206e6f20676f696e67207461736b000000000000000000000000000000600082015250565b6000614ef6601183614046565b9150614f0182614ec0565b602082019050919050565b60006020820190508181036000830152614f2581614ee9565b9050919050565b7f596f7520617265206e6f74207468652063726561746f72000000000000000000600082015250565b6000614f62601783614046565b9150614f6d82614f2c565b602082019050919050565b60006020820190508181036000830152614f9181614f55565b9050919050565b7f4e6f7420656e6465640000000000000000000000000000000000000000000000600082015250565b6000614fce600983614046565b9150614fd982614f98565b602082019050919050565b60006020820190508181036000830152614ffd81614fc1565b9050919050565b7f50726f7669646572207375626d69747465640000000000000000000000000000600082015250565b600061503a601283614046565b915061504582615004565b602082019050919050565b600060208201905081810360008301526150698161502d565b9050919050565b7f526174696e672072616e67652073686f756c642062652030202d203500000000600082015250565b60006150a6601c83614046565b91506150b182615070565b602082019050919050565b600060208201905081810360008301526150d581615099565b9050919050565b7f4d697373696e6720636f6d6d656e740000000000000000000000000000000000600082015250565b6000615112600f83614046565b915061511d826150dc565b602082019050919050565b6000602082019050818103600083015261514181615105565b9050919050565b7f50726f766964657220646964206e6f74206170706c792074686973206a6f6200600082015250565b600061517e601f83614046565b915061518982615148565b602082019050919050565b600060208201905081810360008301526151ad81615171565b9050919050565b7f4e6f7420636f6d706c6574656400000000000000000000000000000000000000600082015250565b60006151ea600d83614046565b91506151f5826151b4565b602082019050919050565b60006020820190508181036000830152615219816151dd565b9050919050565b7f4f776e61626c653a206e6577206f776e657220697320746865207a65726f206160008201527f6464726573730000000000000000000000000000000000000000000000000000602082015250565b600061527c602683614046565b915061528782615220565b604082019050919050565b600060208201905081810360008301526152ab8161526f565b9050919050565b7f4f776e61626c653a2063616c6c6572206973206e6f7420746865206f776e6572600082015250565b60006152e8602083614046565b91506152f3826152b2565b602082019050919050565b60006020820190508181036000830152615317816152db565b905091905056fea2646970667358221220d1d45240199ac09c4a95ccf31b3f21ebc54bc18ded529b15a2cb6cca785fee4164736f6c63430008130033",
  "linkReferences": {},
  "deployedLinkReferences": {}
}